{
  "contractName": "Dex",
  "abi": [
    {
      "anonymous": false,
      "inputs": [
        {
          "indexed": true,
          "internalType": "address",
          "name": "previousOwner",
          "type": "address"
        },
        {
          "indexed": true,
          "internalType": "address",
          "name": "newOwner",
          "type": "address"
        }
      ],
      "name": "OwnershipTransferred",
      "type": "event"
    },
    {
      "inputs": [
        {
          "internalType": "bytes32",
          "name": "ticker",
          "type": "bytes32"
        },
        {
          "internalType": "address",
          "name": "tokenAddress",
          "type": "address"
        }
      ],
      "name": "addToken",
      "outputs": [],
      "stateMutability": "nonpayable",
      "type": "function"
    },
    {
      "inputs": [
        {
          "internalType": "address",
          "name": "",
          "type": "address"
        },
        {
          "internalType": "bytes32",
          "name": "",
          "type": "bytes32"
        }
      ],
      "name": "balances",
      "outputs": [
        {
          "internalType": "uint256",
          "name": "",
          "type": "uint256"
        }
      ],
      "stateMutability": "view",
      "type": "function",
      "constant": true
    },
    {
      "inputs": [
        {
          "internalType": "uint256",
          "name": "amount",
          "type": "uint256"
        },
        {
          "internalType": "bytes32",
          "name": "ticker",
          "type": "bytes32"
        }
      ],
      "name": "deposit",
      "outputs": [],
      "stateMutability": "nonpayable",
      "type": "function"
    },
    {
      "inputs": [],
      "name": "depositEth",
      "outputs": [],
      "stateMutability": "payable",
      "type": "function",
      "payable": true
    },
    {
      "inputs": [],
      "name": "nextOrderId",
      "outputs": [
        {
          "internalType": "uint256",
          "name": "",
          "type": "uint256"
        }
      ],
      "stateMutability": "view",
      "type": "function",
      "constant": true
    },
    {
      "inputs": [
        {
          "internalType": "bytes32",
          "name": "",
          "type": "bytes32"
        },
        {
          "internalType": "uint256",
          "name": "",
          "type": "uint256"
        },
        {
          "internalType": "uint256",
          "name": "",
          "type": "uint256"
        }
      ],
      "name": "orderBook",
      "outputs": [
        {
          "internalType": "uint256",
          "name": "id",
          "type": "uint256"
        },
        {
          "internalType": "address",
          "name": "trader",
          "type": "address"
        },
        {
          "internalType": "enum Dex.Side",
          "name": "buyOrder",
          "type": "uint8"
        },
        {
          "internalType": "bytes32",
          "name": "ticker",
          "type": "bytes32"
        },
        {
          "internalType": "uint256",
          "name": "amount",
          "type": "uint256"
        },
        {
          "internalType": "uint256",
          "name": "price",
          "type": "uint256"
        }
      ],
      "stateMutability": "view",
      "type": "function",
      "constant": true
    },
    {
      "inputs": [],
      "name": "owner",
      "outputs": [
        {
          "internalType": "address",
          "name": "",
          "type": "address"
        }
      ],
      "stateMutability": "view",
      "type": "function",
      "constant": true
    },
    {
      "inputs": [],
      "name": "renounceOwnership",
      "outputs": [],
      "stateMutability": "nonpayable",
      "type": "function"
    },
    {
      "inputs": [
        {
          "internalType": "uint256",
          "name": "",
          "type": "uint256"
        }
      ],
      "name": "tokenList",
      "outputs": [
        {
          "internalType": "bytes32",
          "name": "",
          "type": "bytes32"
        }
      ],
      "stateMutability": "view",
      "type": "function",
      "constant": true
    },
    {
      "inputs": [
        {
          "internalType": "bytes32",
          "name": "",
          "type": "bytes32"
        }
      ],
      "name": "tokenMapping",
      "outputs": [
        {
          "internalType": "bytes32",
          "name": "ticker",
          "type": "bytes32"
        },
        {
          "internalType": "address payable",
          "name": "tokenAddress",
          "type": "address"
        }
      ],
      "stateMutability": "view",
      "type": "function",
      "constant": true
    },
    {
      "inputs": [
        {
          "internalType": "address",
          "name": "newOwner",
          "type": "address"
        }
      ],
      "name": "transferOwnership",
      "outputs": [],
      "stateMutability": "nonpayable",
      "type": "function"
    },
    {
      "inputs": [
        {
          "internalType": "uint256",
          "name": "amount",
          "type": "uint256"
        },
        {
          "internalType": "bytes32",
          "name": "ticker",
          "type": "bytes32"
        }
      ],
      "name": "withdraw",
      "outputs": [],
      "stateMutability": "nonpayable",
      "type": "function"
    },
    {
      "inputs": [
        {
          "internalType": "bytes32",
          "name": "ticker",
          "type": "bytes32"
        },
        {
          "internalType": "enum Dex.Side",
          "name": "side",
          "type": "uint8"
        }
      ],
      "name": "getOrderBook",
      "outputs": [
        {
          "components": [
            {
              "internalType": "uint256",
              "name": "id",
              "type": "uint256"
            },
            {
              "internalType": "address",
              "name": "trader",
              "type": "address"
            },
            {
              "internalType": "enum Dex.Side",
              "name": "buyOrder",
              "type": "uint8"
            },
            {
              "internalType": "bytes32",
              "name": "ticker",
              "type": "bytes32"
            },
            {
              "internalType": "uint256",
              "name": "amount",
              "type": "uint256"
            },
            {
              "internalType": "uint256",
              "name": "price",
              "type": "uint256"
            }
          ],
          "internalType": "struct Dex.Order[]",
          "name": "",
          "type": "tuple[]"
        }
      ],
      "stateMutability": "view",
      "type": "function",
      "constant": true
    },
    {
      "inputs": [
        {
          "internalType": "enum Dex.Side",
          "name": "side",
          "type": "uint8"
        },
        {
          "internalType": "uint256",
          "name": "price",
          "type": "uint256"
        },
        {
          "internalType": "uint256",
          "name": "amount",
          "type": "uint256"
        },
        {
          "internalType": "bytes32",
          "name": "ticker",
          "type": "bytes32"
        }
      ],
      "name": "createLimitOrder",
      "outputs": [],
      "stateMutability": "nonpayable",
      "type": "function"
    }
  ],
  "bytecode": "0x608060405234801561001057600080fd5b5061002d61002261003260201b60201c565b61003a60201b60201c565b6100fe565b600033905090565b60008060009054906101000a900473ffffffffffffffffffffffffffffffffffffffff169050816000806101000a81548173ffffffffffffffffffffffffffffffffffffffff021916908373ffffffffffffffffffffffffffffffffffffffff1602179055508173ffffffffffffffffffffffffffffffffffffffff168173ffffffffffffffffffffffffffffffffffffffff167f8be0079c531659141344cd1fd0a4f28419497f9722a3daafe3b4186f6b6457e060405160405180910390a35050565b611c928061010d6000396000f3fe6080604052600436106100dd5760003560e01c80639776aacf1161007f578063ba58ea6811610059578063ba58ea68146102a5578063c9630cb0146102e2578063dd649b651461030b578063f2fde38b14610334576100dd565b80639776aacf146102165780639ead72221461023f578063a8d2021a1461027c576100dd565b8063439370b1116100bb578063439370b11461018c578063667cb4ba14610196578063715018a6146101d45780638da5cb5b146101eb576100dd565b80630bb431b6146100e25780631f14df69146101245780632a58b33014610161575b600080fd5b3480156100ee57600080fd5b50610109600480360381019061010491906111fc565b61035d565b60405161011b96959493929190611325565b60405180910390f35b34801561013057600080fd5b5061014b600480360381019061014691906113b2565b6103f0565b60405161015891906113f2565b60405180910390f35b34801561016d57600080fd5b50610176610415565b60405161018391906113f2565b60405180910390f35b61019461041b565b005b3480156101a257600080fd5b506101bd60048036038101906101b8919061140d565b61050d565b6040516101cb92919061145b565b60405180910390f35b3480156101e057600080fd5b506101e9610551565b005b3480156101f757600080fd5b506102006105d9565b60405161020d9190611484565b60405180910390f35b34801561022257600080fd5b5061023d6004803603810190610238919061149f565b610602565b005b34801561024b57600080fd5b50610266600480360381019061026191906114df565b61073d565b604051610273919061150c565b60405180910390f35b34801561028857600080fd5b506102a3600480360381019061029e9190611527565b610761565b005b3480156102b157600080fd5b506102cc60048036038101906102c7919061158c565b6109ba565b6040516102d99190611732565b60405180910390f35b3480156102ee57600080fd5b5061030960048036038101906103049190611527565b610b09565b005b34801561031757600080fd5b50610332600480360381019061032d9190611754565b610c9b565b005b34801561034057600080fd5b5061035b600480360381019061035691906117bb565b610fc7565b005b6005602052826000526040600020602052816000526040600020818154811061038557600080fd5b906000526020600020906005020160009250925050508060000154908060010160009054906101000a900473ffffffffffffffffffffffffffffffffffffffff16908060010160149054906101000a900460ff16908060020154908060030154908060040154905086565b6003602052816000526040600020602052806000526040600020600091509150505481565b60045481565b34600360003373ffffffffffffffffffffffffffffffffffffffff1673ffffffffffffffffffffffffffffffffffffffff16815260200190815260200160002060007f45544800000000000000000000000000000000000000000000000000000000008152602001908152602001600020546104979190611817565b600360003373ffffffffffffffffffffffffffffffffffffffff1673ffffffffffffffffffffffffffffffffffffffff16815260200190815260200160002060007f4554480000000000000000000000000000000000000000000000000000000000815260200190815260200160002081905550565b60016020528060005260406000206000915090508060000154908060010160009054906101000a900473ffffffffffffffffffffffffffffffffffffffff16905082565b6105596110bf565b73ffffffffffffffffffffffffffffffffffffffff166105776105d9565b73ffffffffffffffffffffffffffffffffffffffff16146105cd576040517f08c379a00000000000000000000000000000000000000000000000000000000081526004016105c4906118ca565b60405180910390fd5b6105d760006110c7565b565b60008060009054906101000a900473ffffffffffffffffffffffffffffffffffffffff16905090565b61060a6110bf565b73ffffffffffffffffffffffffffffffffffffffff166106286105d9565b73ffffffffffffffffffffffffffffffffffffffff161461067e576040517f08c379a0000000000000000000000000000000000000000000000000000000008152600401610675906118ca565b60405180910390fd5b60405180604001604052808381526020018273ffffffffffffffffffffffffffffffffffffffff16815250600160008481526020019081526020016000206000820151816000015560208201518160010160006101000a81548173ffffffffffffffffffffffffffffffffffffffff021916908373ffffffffffffffffffffffffffffffffffffffff16021790555090505060028290806001815401808255809150506001900390600052602060002001600090919091909150555050565b6002818154811061074d57600080fd5b906000526020600020016000915090505481565b600073ffffffffffffffffffffffffffffffffffffffff166001600083815260200190815260200160002060010160009054906101000a900473ffffffffffffffffffffffffffffffffffffffff1673ffffffffffffffffffffffffffffffffffffffff161415610807576040517f08c379a00000000000000000000000000000000000000000000000000000000081526004016107fe90611936565b60405180910390fd5b81600360003373ffffffffffffffffffffffffffffffffffffffff1673ffffffffffffffffffffffffffffffffffffffff168152602001908152602001600020600083815260200190815260200160002054101561089a576040517f08c379a0000000000000000000000000000000000000000000000000000000008152600401610891906119a2565b60405180910390fd5b81600360003373ffffffffffffffffffffffffffffffffffffffff1673ffffffffffffffffffffffffffffffffffffffff168152602001908152602001600020600083815260200190815260200160002060008282546108fa91906119c2565b925050819055506001600082815260200190815260200160002060010160009054906101000a900473ffffffffffffffffffffffffffffffffffffffff1673ffffffffffffffffffffffffffffffffffffffff1663a9059cbb33846040518363ffffffff1660e01b81526004016109729291906119f6565b6020604051808303816000875af1158015610991573d6000803e3d6000fd5b505050506040513d601f19601f820116820180604052508101906109b59190611a57565b505050565b60606005600084815260200190815260200160002060008360018111156109e4576109e361129f565b5b8152602001908152602001600020805480602002602001604051908101604052809291908181526020016000905b82821015610afd57838290600052602060002090600502016040518060c0016040529081600082015481526020016001820160009054906101000a900473ffffffffffffffffffffffffffffffffffffffff1673ffffffffffffffffffffffffffffffffffffffff1673ffffffffffffffffffffffffffffffffffffffff1681526020016001820160149054906101000a900460ff166001811115610aba57610ab961129f565b5b6001811115610acc57610acb61129f565b5b8152602001600282015481526020016003820154815260200160048201548152505081526020019060010190610a12565b50505050905092915050565b600073ffffffffffffffffffffffffffffffffffffffff166001600083815260200190815260200160002060010160009054906101000a900473ffffffffffffffffffffffffffffffffffffffff1673ffffffffffffffffffffffffffffffffffffffff161415610b7957600080fd5b6001600082815260200190815260200160002060010160009054906101000a900473ffffffffffffffffffffffffffffffffffffffff1673ffffffffffffffffffffffffffffffffffffffff166323b872dd3330856040518463ffffffff1660e01b8152600401610bec93929190611a84565b6020604051808303816000875af1158015610c0b573d6000803e3d6000fd5b505050506040513d601f19601f82011682018060405250810190610c2f9190611a57565b5081600360003373ffffffffffffffffffffffffffffffffffffffff1673ffffffffffffffffffffffffffffffffffffffff16815260200190815260200160002060008381526020019081526020016000206000828254610c909190611817565b925050819055505050565b60006001811115610caf57610cae61129f565b5b846001811115610cc257610cc161129f565b5b1415610d8b578282610cd49190611abb565b600360003373ffffffffffffffffffffffffffffffffffffffff1673ffffffffffffffffffffffffffffffffffffffff16815260200190815260200160002060007f45544800000000000000000000000000000000000000000000000000000000008152602001908152602001600020541015610d86576040517f08c379a0000000000000000000000000000000000000000000000000000000008152600401610d7d90611b61565b60405180910390fd5b610e4c565b600180811115610d9e57610d9d61129f565b5b846001811115610db157610db061129f565b5b1415610e4b5781600360003373ffffffffffffffffffffffffffffffffffffffff1673ffffffffffffffffffffffffffffffffffffffff1681526020019081526020016000206000838152602001908152602001600020541015610e4a576040517f08c379a0000000000000000000000000000000000000000000000000000000008152600401610e41906119a2565b60405180910390fd5b5b5b6000600560008381526020019081526020016000206000866001811115610e7657610e7561129f565b5b81526020019081526020016000209050806040518060c0016040528060045481526020013373ffffffffffffffffffffffffffffffffffffffff168152602001876001811115610ec957610ec861129f565b5b81526020018481526020018581526020018681525090806001815401808255809150506001900390600052602060002090600502016000909190919091506000820151816000015560208201518160010160006101000a81548173ffffffffffffffffffffffffffffffffffffffff021916908373ffffffffffffffffffffffffffffffffffffffff16021790555060408201518160010160146101000a81548160ff02191690836001811115610f8357610f8261129f565b5b0217905550606082015181600201556080820151816003015560a08201518160040155505060046000815480929190610fbb90611b81565b91905055505050505050565b610fcf6110bf565b73ffffffffffffffffffffffffffffffffffffffff16610fed6105d9565b73ffffffffffffffffffffffffffffffffffffffff1614611043576040517f08c379a000000000000000000000000000000000000000000000000000000000815260040161103a906118ca565b60405180910390fd5b600073ffffffffffffffffffffffffffffffffffffffff168173ffffffffffffffffffffffffffffffffffffffff1614156110b3576040517f08c379a00000000000000000000000000000000000000000000000000000000081526004016110aa90611c3c565b60405180910390fd5b6110bc816110c7565b50565b600033905090565b60008060009054906101000a900473ffffffffffffffffffffffffffffffffffffffff169050816000806101000a81548173ffffffffffffffffffffffffffffffffffffffff021916908373ffffffffffffffffffffffffffffffffffffffff1602179055508173ffffffffffffffffffffffffffffffffffffffff168173ffffffffffffffffffffffffffffffffffffffff167f8be0079c531659141344cd1fd0a4f28419497f9722a3daafe3b4186f6b6457e060405160405180910390a35050565b600080fd5b6000819050919050565b6111a381611190565b81146111ae57600080fd5b50565b6000813590506111c08161119a565b92915050565b6000819050919050565b6111d9816111c6565b81146111e457600080fd5b50565b6000813590506111f6816111d0565b92915050565b6000806000606084860312156112155761121461118b565b5b6000611223868287016111b1565b9350506020611234868287016111e7565b9250506040611245868287016111e7565b9150509250925092565b611258816111c6565b82525050565b600073ffffffffffffffffffffffffffffffffffffffff82169050919050565b60006112898261125e565b9050919050565b6112998161127e565b82525050565b7f4e487b7100000000000000000000000000000000000000000000000000000000600052602160045260246000fd5b600281106112df576112de61129f565b5b50565b60008190506112f0826112ce565b919050565b6000611300826112e2565b9050919050565b611310816112f5565b82525050565b61131f81611190565b82525050565b600060c08201905061133a600083018961124f565b6113476020830188611290565b6113546040830187611307565b6113616060830186611316565b61136e608083018561124f565b61137b60a083018461124f565b979650505050505050565b61138f8161127e565b811461139a57600080fd5b50565b6000813590506113ac81611386565b92915050565b600080604083850312156113c9576113c861118b565b5b60006113d78582860161139d565b92505060206113e8858286016111b1565b9150509250929050565b6000602082019050611407600083018461124f565b92915050565b6000602082840312156114235761142261118b565b5b6000611431848285016111b1565b91505092915050565b60006114458261125e565b9050919050565b6114558161143a565b82525050565b60006040820190506114706000830185611316565b61147d602083018461144c565b9392505050565b60006020820190506114996000830184611290565b92915050565b600080604083850312156114b6576114b561118b565b5b60006114c4858286016111b1565b92505060206114d58582860161139d565b9150509250929050565b6000602082840312156114f5576114f461118b565b5b6000611503848285016111e7565b91505092915050565b60006020820190506115216000830184611316565b92915050565b6000806040838503121561153e5761153d61118b565b5b600061154c858286016111e7565b925050602061155d858286016111b1565b9150509250929050565b6002811061157457600080fd5b50565b60008135905061158681611567565b92915050565b600080604083850312156115a3576115a261118b565b5b60006115b1858286016111b1565b92505060206115c285828601611577565b9150509250929050565b600081519050919050565b600082825260208201905092915050565b6000819050602082019050919050565b611601816111c6565b82525050565b6116108161127e565b82525050565b61161f816112f5565b82525050565b61162e81611190565b82525050565b60c08201600082015161164a60008501826115f8565b50602082015161165d6020850182611607565b5060408201516116706040850182611616565b5060608201516116836060850182611625565b50608082015161169660808501826115f8565b5060a08201516116a960a08501826115f8565b50505050565b60006116bb8383611634565b60c08301905092915050565b6000602082019050919050565b60006116df826115cc565b6116e981856115d7565b93506116f4836115e8565b8060005b8381101561172557815161170c88826116af565b9750611717836116c7565b9250506001810190506116f8565b5085935050505092915050565b6000602082019050818103600083015261174c81846116d4565b905092915050565b6000806000806080858703121561176e5761176d61118b565b5b600061177c87828801611577565b945050602061178d878288016111e7565b935050604061179e878288016111e7565b92505060606117af878288016111b1565b91505092959194509250565b6000602082840312156117d1576117d061118b565b5b60006117df8482850161139d565b91505092915050565b7f4e487b7100000000000000000000000000000000000000000000000000000000600052601160045260246000fd5b6000611822826111c6565b915061182d836111c6565b9250827fffffffffffffffffffffffffffffffffffffffffffffffffffffffffffffffff03821115611862576118616117e8565b5b828201905092915050565b600082825260208201905092915050565b7f4f776e61626c653a2063616c6c6572206973206e6f7420746865206f776e6572600082015250565b60006118b460208361186d565b91506118bf8261187e565b602082019050919050565b600060208201905081810360008301526118e3816118a7565b9050919050565b7f546f6b656e20646f6573206e6f74206578697374000000000000000000000000600082015250565b600061192060148361186d565b915061192b826118ea565b602082019050919050565b6000602082019050818103600083015261194f81611913565b9050919050565b7f6e6f7420656e6f7567682063757272656e637900000000000000000000000000600082015250565b600061198c60138361186d565b915061199782611956565b602082019050919050565b600060208201905081810360008301526119bb8161197f565b9050919050565b60006119cd826111c6565b91506119d8836111c6565b9250828210156119eb576119ea6117e8565b5b828203905092915050565b6000604082019050611a0b6000830185611290565b611a18602083018461124f565b9392505050565b60008115159050919050565b611a3481611a1f565b8114611a3f57600080fd5b50565b600081519050611a5181611a2b565b92915050565b600060208284031215611a6d57611a6c61118b565b5b6000611a7b84828501611a42565b91505092915050565b6000606082019050611a996000830186611290565b611aa66020830185611290565b611ab3604083018461124f565b949350505050565b6000611ac6826111c6565b9150611ad1836111c6565b9250817fffffffffffffffffffffffffffffffffffffffffffffffffffffffffffffffff0483118215151615611b0a57611b096117e8565b5b828202905092915050565b7f6e6f7420656e6f75676820657468000000000000000000000000000000000000600082015250565b6000611b4b600e8361186d565b9150611b5682611b15565b602082019050919050565b60006020820190508181036000830152611b7a81611b3e565b9050919050565b6000611b8c826111c6565b91507fffffffffffffffffffffffffffffffffffffffffffffffffffffffffffffffff821415611bbf57611bbe6117e8565b5b600182019050919050565b7f4f776e61626c653a206e6577206f776e657220697320746865207a65726f206160008201527f6464726573730000000000000000000000000000000000000000000000000000602082015250565b6000611c2660268361186d565b9150611c3182611bca565b604082019050919050565b60006020820190508181036000830152611c5581611c19565b905091905056fea2646970667358221220a61c15ec7e59496b12c6b07bfd1b7178eeecd789b7ad5560bb2511c2be2c75c064736f6c634300080a0033",
  "immutableReferences": {},
  "source": "pragma solidity ^0.8.0;\npragma experimental ABIEncoderV2;\n\nimport \"./Wallet.sol\";\nimport \"./nf1tCurrency.sol\";\ncontract Dex is Wallet {\n    uint public nextOrderId;\n    enum Side {\n        BUY,\n        SELL\n    }\n    struct Order {\n        uint id;\n        address trader;\n        Side buyOrder;\n        bytes32 ticker;\n        uint amount;\n        uint price;\n    }\n    mapping (bytes32 => mapping(uint => Order[])) public orderBook;\n\n    function getOrderBook(bytes32 ticker, Side side) view public returns (Order[] memory) {\n        return orderBook[ticker][uint(side)];\n    }\n\n    function createLimitOrder(Side side,uint price, uint amount, bytes32 ticker) external {\n            if (side == Side.BUY) {\n                require(balances[msg.sender][\"ETH\"] >= amount*price, \"not enough eth\");\n            } else if (side == Side.SELL){\n                require(balances[msg.sender][ticker] >= amount, \"not enough currency\");\n            }\n            Order[] storage orders = orderBook[ticker][uint(side)];\n            orders.push(Order(nextOrderId, msg.sender,side,ticker,amount,price));\n            nextOrderId++;\n            // orders = bubbleSort(orders,side);\n            \n    }\n\n    function bubbleSort(Order[] storage orders , Side side) internal returns (Order[] storage sortedOrder) {\n\n        for (uint i = 0;i<orders.length;i++) {\n            for (uint j = i+1; j<orders.length;j++) {\n                Order memory tmp;\n                if (side == Side.BUY) {\n                    if (orders[i].price < orders[j].price) {\n                        tmp = orders[i];\n                        orders[i] = orders[j];\n                        orders[j] = tmp;\n                    }\n                } else if (side == Side.SELL) {\n                    if (orders[i].price > orders[j].price) {\n                        tmp = orders[i];\n                        orders[i] = orders[j];\n                        orders[j] = tmp;\n                    }\n                }\n            }\n        }\n        return orders;\n    }\n}",
  "sourcePath": "/home/matt/Documents/DEX/contracts/Dex.sol",
  "compiler": {
    "name": "solc",
    "version": "0.8.10+commit.fc410830.Emscripten.clang"
  },
  "schemaVersion": "3.4.3",
  "updatedAt": "2021-12-02T11:44:15.086Z",
  "networkType": "ethereum",
  "devdoc": {
    "kind": "dev",
    "methods": {
      "owner()": {
        "details": "Returns the address of the current owner."
      },
      "renounceOwnership()": {
        "details": "Leaves the contract without owner. It will not be possible to call `onlyOwner` functions anymore. Can only be called by the current owner. NOTE: Renouncing ownership will leave the contract without an owner, thereby removing any functionality that is only available to the owner."
      },
      "transferOwnership(address)": {
        "details": "Transfers ownership of the contract to a new account (`newOwner`). Can only be called by the current owner."
      }
    },
    "version": 1
  },
  "userdoc": {
    "kind": "user",
    "methods": {},
    "version": 1
  }
}