{
  "contractName": "Speedeum",
  "abi": [
    {
      "inputs": [],
      "stateMutability": "nonpayable",
      "type": "constructor"
    },
    {
      "anonymous": false,
      "inputs": [
        {
          "indexed": true,
          "internalType": "address",
          "name": "owner",
          "type": "address"
        },
        {
          "indexed": true,
          "internalType": "address",
          "name": "spender",
          "type": "address"
        },
        {
          "indexed": false,
          "internalType": "uint256",
          "name": "value",
          "type": "uint256"
        }
      ],
      "name": "Approval",
      "type": "event"
    },
    {
      "anonymous": false,
      "inputs": [
        {
          "indexed": true,
          "internalType": "bytes32",
          "name": "role",
          "type": "bytes32"
        },
        {
          "indexed": true,
          "internalType": "bytes32",
          "name": "previousAdminRole",
          "type": "bytes32"
        },
        {
          "indexed": true,
          "internalType": "bytes32",
          "name": "newAdminRole",
          "type": "bytes32"
        }
      ],
      "name": "RoleAdminChanged",
      "type": "event"
    },
    {
      "anonymous": false,
      "inputs": [
        {
          "indexed": true,
          "internalType": "bytes32",
          "name": "role",
          "type": "bytes32"
        },
        {
          "indexed": true,
          "internalType": "address",
          "name": "account",
          "type": "address"
        },
        {
          "indexed": true,
          "internalType": "address",
          "name": "sender",
          "type": "address"
        }
      ],
      "name": "RoleGranted",
      "type": "event"
    },
    {
      "anonymous": false,
      "inputs": [
        {
          "indexed": true,
          "internalType": "bytes32",
          "name": "role",
          "type": "bytes32"
        },
        {
          "indexed": true,
          "internalType": "address",
          "name": "account",
          "type": "address"
        },
        {
          "indexed": true,
          "internalType": "address",
          "name": "sender",
          "type": "address"
        }
      ],
      "name": "RoleRevoked",
      "type": "event"
    },
    {
      "anonymous": false,
      "inputs": [
        {
          "indexed": true,
          "internalType": "address",
          "name": "from",
          "type": "address"
        },
        {
          "indexed": true,
          "internalType": "address",
          "name": "to",
          "type": "address"
        },
        {
          "indexed": false,
          "internalType": "uint256",
          "name": "value",
          "type": "uint256"
        }
      ],
      "name": "Transfer",
      "type": "event"
    },
    {
      "inputs": [],
      "name": "DEFAULT_ADMIN_ROLE",
      "outputs": [
        {
          "internalType": "bytes32",
          "name": "",
          "type": "bytes32"
        }
      ],
      "stateMutability": "view",
      "type": "function",
      "constant": true
    },
    {
      "inputs": [],
      "name": "Driver",
      "outputs": [
        {
          "internalType": "bytes32",
          "name": "",
          "type": "bytes32"
        }
      ],
      "stateMutability": "view",
      "type": "function",
      "constant": true
    },
    {
      "inputs": [],
      "name": "Engineer",
      "outputs": [
        {
          "internalType": "bytes32",
          "name": "",
          "type": "bytes32"
        }
      ],
      "stateMutability": "view",
      "type": "function",
      "constant": true
    },
    {
      "inputs": [],
      "name": "Manager",
      "outputs": [
        {
          "internalType": "bytes32",
          "name": "",
          "type": "bytes32"
        }
      ],
      "stateMutability": "view",
      "type": "function",
      "constant": true
    },
    {
      "inputs": [
        {
          "internalType": "address",
          "name": "owner",
          "type": "address"
        },
        {
          "internalType": "address",
          "name": "spender",
          "type": "address"
        }
      ],
      "name": "allowance",
      "outputs": [
        {
          "internalType": "uint256",
          "name": "",
          "type": "uint256"
        }
      ],
      "stateMutability": "view",
      "type": "function",
      "constant": true
    },
    {
      "inputs": [
        {
          "internalType": "address",
          "name": "spender",
          "type": "address"
        },
        {
          "internalType": "uint256",
          "name": "amount",
          "type": "uint256"
        }
      ],
      "name": "approve",
      "outputs": [
        {
          "internalType": "bool",
          "name": "",
          "type": "bool"
        }
      ],
      "stateMutability": "nonpayable",
      "type": "function"
    },
    {
      "inputs": [
        {
          "internalType": "address",
          "name": "account",
          "type": "address"
        }
      ],
      "name": "balanceOf",
      "outputs": [
        {
          "internalType": "uint256",
          "name": "",
          "type": "uint256"
        }
      ],
      "stateMutability": "view",
      "type": "function",
      "constant": true
    },
    {
      "inputs": [],
      "name": "decimals",
      "outputs": [
        {
          "internalType": "uint8",
          "name": "",
          "type": "uint8"
        }
      ],
      "stateMutability": "view",
      "type": "function",
      "constant": true
    },
    {
      "inputs": [
        {
          "internalType": "address",
          "name": "spender",
          "type": "address"
        },
        {
          "internalType": "uint256",
          "name": "subtractedValue",
          "type": "uint256"
        }
      ],
      "name": "decreaseAllowance",
      "outputs": [
        {
          "internalType": "bool",
          "name": "",
          "type": "bool"
        }
      ],
      "stateMutability": "nonpayable",
      "type": "function"
    },
    {
      "inputs": [
        {
          "internalType": "bytes32",
          "name": "role",
          "type": "bytes32"
        }
      ],
      "name": "getRoleAdmin",
      "outputs": [
        {
          "internalType": "bytes32",
          "name": "",
          "type": "bytes32"
        }
      ],
      "stateMutability": "view",
      "type": "function",
      "constant": true
    },
    {
      "inputs": [
        {
          "internalType": "bytes32",
          "name": "role",
          "type": "bytes32"
        },
        {
          "internalType": "address",
          "name": "account",
          "type": "address"
        }
      ],
      "name": "grantRole",
      "outputs": [],
      "stateMutability": "nonpayable",
      "type": "function"
    },
    {
      "inputs": [
        {
          "internalType": "bytes32",
          "name": "role",
          "type": "bytes32"
        },
        {
          "internalType": "address",
          "name": "account",
          "type": "address"
        }
      ],
      "name": "hasRole",
      "outputs": [
        {
          "internalType": "bool",
          "name": "",
          "type": "bool"
        }
      ],
      "stateMutability": "view",
      "type": "function",
      "constant": true
    },
    {
      "inputs": [
        {
          "internalType": "address",
          "name": "spender",
          "type": "address"
        },
        {
          "internalType": "uint256",
          "name": "addedValue",
          "type": "uint256"
        }
      ],
      "name": "increaseAllowance",
      "outputs": [
        {
          "internalType": "bool",
          "name": "",
          "type": "bool"
        }
      ],
      "stateMutability": "nonpayable",
      "type": "function"
    },
    {
      "inputs": [],
      "name": "name",
      "outputs": [
        {
          "internalType": "string",
          "name": "",
          "type": "string"
        }
      ],
      "stateMutability": "view",
      "type": "function",
      "constant": true
    },
    {
      "inputs": [
        {
          "internalType": "bytes32",
          "name": "role",
          "type": "bytes32"
        },
        {
          "internalType": "address",
          "name": "account",
          "type": "address"
        }
      ],
      "name": "renounceRole",
      "outputs": [],
      "stateMutability": "nonpayable",
      "type": "function"
    },
    {
      "inputs": [
        {
          "internalType": "bytes32",
          "name": "role",
          "type": "bytes32"
        },
        {
          "internalType": "address",
          "name": "account",
          "type": "address"
        }
      ],
      "name": "revokeRole",
      "outputs": [],
      "stateMutability": "nonpayable",
      "type": "function"
    },
    {
      "inputs": [
        {
          "internalType": "bytes4",
          "name": "interfaceId",
          "type": "bytes4"
        }
      ],
      "name": "supportsInterface",
      "outputs": [
        {
          "internalType": "bool",
          "name": "",
          "type": "bool"
        }
      ],
      "stateMutability": "view",
      "type": "function",
      "constant": true
    },
    {
      "inputs": [],
      "name": "symbol",
      "outputs": [
        {
          "internalType": "string",
          "name": "",
          "type": "string"
        }
      ],
      "stateMutability": "view",
      "type": "function",
      "constant": true
    },
    {
      "inputs": [],
      "name": "totalSupply",
      "outputs": [
        {
          "internalType": "uint256",
          "name": "",
          "type": "uint256"
        }
      ],
      "stateMutability": "view",
      "type": "function",
      "constant": true
    },
    {
      "inputs": [
        {
          "internalType": "address",
          "name": "recipient",
          "type": "address"
        },
        {
          "internalType": "uint256",
          "name": "amount",
          "type": "uint256"
        }
      ],
      "name": "transfer",
      "outputs": [
        {
          "internalType": "bool",
          "name": "",
          "type": "bool"
        }
      ],
      "stateMutability": "nonpayable",
      "type": "function"
    },
    {
      "inputs": [
        {
          "internalType": "address",
          "name": "sender",
          "type": "address"
        },
        {
          "internalType": "address",
          "name": "recipient",
          "type": "address"
        },
        {
          "internalType": "uint256",
          "name": "amount",
          "type": "uint256"
        }
      ],
      "name": "transferFrom",
      "outputs": [
        {
          "internalType": "bool",
          "name": "",
          "type": "bool"
        }
      ],
      "stateMutability": "nonpayable",
      "type": "function"
    },
    {
      "inputs": [
        {
          "internalType": "address",
          "name": "DriverAddress",
          "type": "address"
        },
        {
          "internalType": "address",
          "name": "EngineerAddress",
          "type": "address"
        }
      ],
      "name": "JoinF1",
      "outputs": [],
      "stateMutability": "nonpayable",
      "type": "function"
    },
    {
      "inputs": [
        {
          "internalType": "bytes32",
          "name": "role",
          "type": "bytes32"
        },
        {
          "internalType": "address",
          "name": "demoteee",
          "type": "address"
        }
      ],
      "name": "demote",
      "outputs": [],
      "stateMutability": "nonpayable",
      "type": "function"
    },
    {
      "inputs": [
        {
          "internalType": "bytes32",
          "name": "role",
          "type": "bytes32"
        },
        {
          "internalType": "address",
          "name": "checkee",
          "type": "address"
        }
      ],
      "name": "checkRole",
      "outputs": [
        {
          "internalType": "bool",
          "name": "",
          "type": "bool"
        }
      ],
      "stateMutability": "view",
      "type": "function",
      "constant": true
    },
    {
      "inputs": [
        {
          "internalType": "uint256",
          "name": "amount",
          "type": "uint256"
        }
      ],
      "name": "mint",
      "outputs": [],
      "stateMutability": "nonpayable",
      "type": "function"
    }
  ],
  "bytecode": "0x60806040523480156200001157600080fd5b506040518060400160405280600881526020017f537065656465756d0000000000000000000000000000000000000000000000008152506040518060400160405280600481526020017f5350444d00000000000000000000000000000000000000000000000000000000815250816003908051906020019062000096929190620003b7565b508060049080519060200190620000af929190620003b7565b50505033600660006101000a81548173ffffffffffffffffffffffffffffffffffffffff021916908373ffffffffffffffffffffffffffffffffffffffff160217905550620001063360de620001b060201b60201c565b620001587f6e220a4fa0e3f250021e6b8eab95f1f1d0a96fa509059fcb55b181b6e26a90107f6d439300980e333f0256d64be2c9f67e86f4493ce25f82498d6db7f4be3d9e6f6200032960201b60201c565b620001aa7ff07c72fd72752bae7cf076734acffb0e542436cdde58a7948af562bec4b70ea57f6d439300980e333f0256d64be2c9f67e86f4493ce25f82498d6db7f4be3d9e6f6200032960201b60201c565b62000613565b600073ffffffffffffffffffffffffffffffffffffffff168273ffffffffffffffffffffffffffffffffffffffff16141562000223576040517f08c379a00000000000000000000000000000000000000000000000000000000081526004016200021a90620004c8565b60405180910390fd5b62000237600083836200038d60201b60201c565b80600260008282546200024b919062000523565b92505081905550806000808473ffffffffffffffffffffffffffffffffffffffff1673ffffffffffffffffffffffffffffffffffffffff1681526020019081526020016000206000828254620002a2919062000523565b925050819055508173ffffffffffffffffffffffffffffffffffffffff16600073ffffffffffffffffffffffffffffffffffffffff167fddf252ad1be2c89b69c2b068fc378daa952ba7f163c4a11628f55a4df523b3ef8360405162000309919062000591565b60405180910390a362000325600083836200039260201b60201c565b5050565b60006200033c836200039760201b60201c565b90508160056000858152602001908152602001600020600101819055508181847fbd79b86ffe0ab8e8776151514217cd7cacd52c909f66475c3af44e129f0b00ff60405160405180910390a4505050565b505050565b505050565b600060056000838152602001908152602001600020600101549050919050565b828054620003c590620005dd565b90600052602060002090601f016020900481019282620003e9576000855562000435565b82601f106200040457805160ff191683800117855562000435565b8280016001018555821562000435579182015b828111156200043457825182559160200191906001019062000417565b5b50905062000444919062000448565b5090565b5b808211156200046357600081600090555060010162000449565b5090565b600082825260208201905092915050565b7f45524332303a206d696e7420746f20746865207a65726f206164647265737300600082015250565b6000620004b0601f8362000467565b9150620004bd8262000478565b602082019050919050565b60006020820190508181036000830152620004e381620004a1565b9050919050565b6000819050919050565b7f4e487b7100000000000000000000000000000000000000000000000000000000600052601160045260246000fd5b60006200053082620004ea565b91506200053d83620004ea565b9250827fffffffffffffffffffffffffffffffffffffffffffffffffffffffffffffffff03821115620005755762000574620004f4565b5b828201905092915050565b6200058b81620004ea565b82525050565b6000602082019050620005a8600083018462000580565b92915050565b7f4e487b7100000000000000000000000000000000000000000000000000000000600052602260045260246000fd5b60006002820490506001821680620005f657607f821691505b602082108114156200060d576200060c620005ae565b5b50919050565b6124cd80620006236000396000f3fe608060405234801561001057600080fd5b50600436106101735760003560e01c806378357e53116100de578063a457c2d711610097578063ba61f8ce11610071578063ba61f8ce1461049a578063d547741f146104b8578063d8d574df146104d4578063dd62ed3e146104f057610173565b8063a457c2d71461041c578063a9059cbb1461044c578063b4bd7d411461047c57610173565b806378357e531461035a57806391d148541461037857806395d89b41146103a85780639741d517146103c6578063a0712d68146103e2578063a217fddf146103fe57610173565b8063248a9ca311610130578063248a9ca3146102745780632f2ff15d146102a4578063313ce567146102c057806336568abe146102de57806339509351146102fa57806370a082311461032a57610173565b806301ffc9a71461017857806306fdde03146101a8578063095ea7b3146101c657806312d9a6ad146101f657806318160ddd1461022657806323b872dd14610244575b600080fd5b610192600480360381019061018d919061184c565b610520565b60405161019f9190611894565b60405180910390f35b6101b061059a565b6040516101bd9190611948565b60405180910390f35b6101e060048036038101906101db91906119fe565b61062c565b6040516101ed9190611894565b60405180910390f35b610210600480360381019061020b9190611a74565b61064a565b60405161021d9190611894565b60405180910390f35b61022e610691565b60405161023b9190611ac3565b60405180910390f35b61025e60048036038101906102599190611ade565b61069b565b60405161026b9190611894565b60405180910390f35b61028e60048036038101906102899190611b31565b610793565b60405161029b9190611b6d565b60405180910390f35b6102be60048036038101906102b99190611a74565b6107b3565b005b6102c86107dc565b6040516102d59190611ba4565b60405180910390f35b6102f860048036038101906102f39190611a74565b6107e5565b005b610314600480360381019061030f91906119fe565b610868565b6040516103219190611894565b60405180910390f35b610344600480360381019061033f9190611bbf565b610914565b6040516103519190611ac3565b60405180910390f35b61036261095c565b60405161036f9190611b6d565b60405180910390f35b610392600480360381019061038d9190611a74565b610980565b60405161039f9190611894565b60405180910390f35b6103b06109eb565b6040516103bd9190611948565b60405180910390f35b6103e060048036038101906103db9190611a74565b610a7d565b005b6103fc60048036038101906103f79190611bec565b610abe565b005b610406610acb565b6040516104139190611b6d565b60405180910390f35b610436600480360381019061043191906119fe565b610ad2565b6040516104439190611894565b60405180910390f35b610466600480360381019061046191906119fe565b610bbd565b6040516104739190611894565b60405180910390f35b610484610bdb565b6040516104919190611b6d565b60405180910390f35b6104a2610bff565b6040516104af9190611b6d565b60405180910390f35b6104d260048036038101906104cd9190611a74565b610c23565b005b6104ee60048036038101906104e99190611c19565b610c4c565b005b61050a60048036038101906105059190611c19565b610ca4565b6040516105179190611ac3565b60405180910390f35b60007f7965db0b000000000000000000000000000000000000000000000000000000007bffffffffffffffffffffffffffffffffffffffffffffffffffffffff1916827bffffffffffffffffffffffffffffffffffffffffffffffffffffffff19161480610593575061059282610d2b565b5b9050919050565b6060600380546105a990611c88565b80601f01602080910402602001604051908101604052809291908181526020018280546105d590611c88565b80156106225780601f106105f757610100808354040283529160200191610622565b820191906000526020600020905b81548152906001019060200180831161060557829003601f168201915b5050505050905090565b6000610640610639610d95565b8484610d9d565b6001905092915050565b60007f6d439300980e333f0256d64be2c9f67e86f4493ce25f82498d6db7f4be3d9e6f61067e81610679610d95565b610f68565b6106888484610980565b91505092915050565b6000600254905090565b60006106a8848484611005565b6000600160008673ffffffffffffffffffffffffffffffffffffffff1673ffffffffffffffffffffffffffffffffffffffff16815260200190815260200160002060006106f3610d95565b73ffffffffffffffffffffffffffffffffffffffff1673ffffffffffffffffffffffffffffffffffffffff16815260200190815260200160002054905082811015610773576040517f08c379a000000000000000000000000000000000000000000000000000000000815260040161076a90611d2c565b60405180910390fd5b6107878561077f610d95565b858403610d9d565b60019150509392505050565b600060056000838152602001908152602001600020600101549050919050565b6107bc82610793565b6107cd816107c8610d95565b610f68565b6107d78383611286565b505050565b60006012905090565b6107ed610d95565b73ffffffffffffffffffffffffffffffffffffffff168173ffffffffffffffffffffffffffffffffffffffff161461085a576040517f08c379a000000000000000000000000000000000000000000000000000000000815260040161085190611dbe565b60405180910390fd5b6108648282611367565b5050565b600061090a610875610d95565b848460016000610883610d95565b73ffffffffffffffffffffffffffffffffffffffff1673ffffffffffffffffffffffffffffffffffffffff16815260200190815260200160002060008873ffffffffffffffffffffffffffffffffffffffff1673ffffffffffffffffffffffffffffffffffffffff168152602001908152602001600020546109059190611e0d565b610d9d565b6001905092915050565b60008060008373ffffffffffffffffffffffffffffffffffffffff1673ffffffffffffffffffffffffffffffffffffffff168152602001908152602001600020549050919050565b7f6d439300980e333f0256d64be2c9f67e86f4493ce25f82498d6db7f4be3d9e6f81565b60006005600084815260200190815260200160002060000160008373ffffffffffffffffffffffffffffffffffffffff1673ffffffffffffffffffffffffffffffffffffffff16815260200190815260200160002060009054906101000a900460ff16905092915050565b6060600480546109fa90611c88565b80601f0160208091040260200160405190810160405280929190818152602001828054610a2690611c88565b8015610a735780601f10610a4857610100808354040283529160200191610a73565b820191906000526020600020905b815481529060010190602001808311610a5657829003601f168201915b5050505050905090565b7f6d439300980e333f0256d64be2c9f67e86f4493ce25f82498d6db7f4be3d9e6f610aaf81610aaa610d95565b610f68565b610ab98383610c23565b505050565b610ac83382611449565b50565b6000801b81565b60008060016000610ae1610d95565b73ffffffffffffffffffffffffffffffffffffffff1673ffffffffffffffffffffffffffffffffffffffff16815260200190815260200160002060008573ffffffffffffffffffffffffffffffffffffffff1673ffffffffffffffffffffffffffffffffffffffff16815260200190815260200160002054905082811015610b9e576040517f08c379a0000000000000000000000000000000000000000000000000000000008152600401610b9590611ed5565b60405180910390fd5b610bb2610ba9610d95565b85858403610d9d565b600191505092915050565b6000610bd1610bca610d95565b8484611005565b6001905092915050565b7ff07c72fd72752bae7cf076734acffb0e542436cdde58a7948af562bec4b70ea581565b7f6e220a4fa0e3f250021e6b8eab95f1f1d0a96fa509059fcb55b181b6e26a901081565b610c2c82610793565b610c3d81610c38610d95565b610f68565b610c478383611367565b505050565b610c767f6e220a4fa0e3f250021e6b8eab95f1f1d0a96fa509059fcb55b181b6e26a901083611286565b610ca07ff07c72fd72752bae7cf076734acffb0e542436cdde58a7948af562bec4b70ea582611286565b5050565b6000600160008473ffffffffffffffffffffffffffffffffffffffff1673ffffffffffffffffffffffffffffffffffffffff16815260200190815260200160002060008373ffffffffffffffffffffffffffffffffffffffff1673ffffffffffffffffffffffffffffffffffffffff16815260200190815260200160002054905092915050565b60007f01ffc9a7000000000000000000000000000000000000000000000000000000007bffffffffffffffffffffffffffffffffffffffffffffffffffffffff1916827bffffffffffffffffffffffffffffffffffffffffffffffffffffffff1916149050919050565b600033905090565b600073ffffffffffffffffffffffffffffffffffffffff168373ffffffffffffffffffffffffffffffffffffffff161415610e0d576040517f08c379a0000000000000000000000000000000000000000000000000000000008152600401610e0490611f67565b60405180910390fd5b600073ffffffffffffffffffffffffffffffffffffffff168273ffffffffffffffffffffffffffffffffffffffff161415610e7d576040517f08c379a0000000000000000000000000000000000000000000000000000000008152600401610e7490611ff9565b60405180910390fd5b80600160008573ffffffffffffffffffffffffffffffffffffffff1673ffffffffffffffffffffffffffffffffffffffff16815260200190815260200160002060008473ffffffffffffffffffffffffffffffffffffffff1673ffffffffffffffffffffffffffffffffffffffff168152602001908152602001600020819055508173ffffffffffffffffffffffffffffffffffffffff168373ffffffffffffffffffffffffffffffffffffffff167f8c5be1e5ebec7d5bd14f71427d1e84f3dd0314c0f7b2291e5b200ac8c7c3b92583604051610f5b9190611ac3565b60405180910390a3505050565b610f728282610980565b61100157610f978173ffffffffffffffffffffffffffffffffffffffff1660146115a9565b610fa58360001c60206115a9565b604051602001610fb69291906120ed565b6040516020818303038152906040526040517f08c379a0000000000000000000000000000000000000000000000000000000008152600401610ff89190611948565b60405180910390fd5b5050565b600073ffffffffffffffffffffffffffffffffffffffff168373ffffffffffffffffffffffffffffffffffffffff161415611075576040517f08c379a000000000000000000000000000000000000000000000000000000000815260040161106c90612199565b60405180910390fd5b600073ffffffffffffffffffffffffffffffffffffffff168273ffffffffffffffffffffffffffffffffffffffff1614156110e5576040517f08c379a00000000000000000000000000000000000000000000000000000000081526004016110dc9061222b565b60405180910390fd5b6110f08383836117e5565b60008060008573ffffffffffffffffffffffffffffffffffffffff1673ffffffffffffffffffffffffffffffffffffffff16815260200190815260200160002054905081811015611176576040517f08c379a000000000000000000000000000000000000000000000000000000000815260040161116d906122bd565b60405180910390fd5b8181036000808673ffffffffffffffffffffffffffffffffffffffff1673ffffffffffffffffffffffffffffffffffffffff16815260200190815260200160002081905550816000808573ffffffffffffffffffffffffffffffffffffffff1673ffffffffffffffffffffffffffffffffffffffff16815260200190815260200160002060008282546112099190611e0d565b925050819055508273ffffffffffffffffffffffffffffffffffffffff168473ffffffffffffffffffffffffffffffffffffffff167fddf252ad1be2c89b69c2b068fc378daa952ba7f163c4a11628f55a4df523b3ef8460405161126d9190611ac3565b60405180910390a36112808484846117ea565b50505050565b6112908282610980565b6113635760016005600084815260200190815260200160002060000160008373ffffffffffffffffffffffffffffffffffffffff1673ffffffffffffffffffffffffffffffffffffffff16815260200190815260200160002060006101000a81548160ff021916908315150217905550611308610d95565b73ffffffffffffffffffffffffffffffffffffffff168173ffffffffffffffffffffffffffffffffffffffff16837f2f8788117e7eff1d82e926ec794901d17c78024a50270940304540a733656f0d60405160405180910390a45b5050565b6113718282610980565b156114455760006005600084815260200190815260200160002060000160008373ffffffffffffffffffffffffffffffffffffffff1673ffffffffffffffffffffffffffffffffffffffff16815260200190815260200160002060006101000a81548160ff0219169083151502179055506113ea610d95565b73ffffffffffffffffffffffffffffffffffffffff168173ffffffffffffffffffffffffffffffffffffffff16837ff6391f5c32d9c69d2a47ea670b442974b53935d1edc7fd64eb21e047a839171b60405160405180910390a45b5050565b600073ffffffffffffffffffffffffffffffffffffffff168273ffffffffffffffffffffffffffffffffffffffff1614156114b9576040517f08c379a00000000000000000000000000000000000000000000000000000000081526004016114b090612329565b60405180910390fd5b6114c5600083836117e5565b80600260008282546114d79190611e0d565b92505081905550806000808473ffffffffffffffffffffffffffffffffffffffff1673ffffffffffffffffffffffffffffffffffffffff168152602001908152602001600020600082825461152c9190611e0d565b925050819055508173ffffffffffffffffffffffffffffffffffffffff16600073ffffffffffffffffffffffffffffffffffffffff167fddf252ad1be2c89b69c2b068fc378daa952ba7f163c4a11628f55a4df523b3ef836040516115919190611ac3565b60405180910390a36115a5600083836117ea565b5050565b6060600060028360026115bc9190612349565b6115c69190611e0d565b67ffffffffffffffff8111156115df576115de6123a3565b5b6040519080825280601f01601f1916602001820160405280156116115781602001600182028036833780820191505090505b5090507f300000000000000000000000000000000000000000000000000000000000000081600081518110611649576116486123d2565b5b60200101907effffffffffffffffffffffffffffffffffffffffffffffffffffffffffffff1916908160001a9053507f7800000000000000000000000000000000000000000000000000000000000000816001815181106116ad576116ac6123d2565b5b60200101907effffffffffffffffffffffffffffffffffffffffffffffffffffffffffffff1916908160001a905350600060018460026116ed9190612349565b6116f79190611e0d565b90505b6001811115611797577f3031323334353637383961626364656600000000000000000000000000000000600f861660108110611739576117386123d2565b5b1a60f81b8282815181106117505761174f6123d2565b5b60200101907effffffffffffffffffffffffffffffffffffffffffffffffffffffffffffff1916908160001a905350600485901c94508061179090612401565b90506116fa565b50600084146117db576040517f08c379a00000000000000000000000000000000000000000000000000000000081526004016117d290612477565b60405180910390fd5b8091505092915050565b505050565b505050565b600080fd5b60007fffffffff0000000000000000000000000000000000000000000000000000000082169050919050565b611829816117f4565b811461183457600080fd5b50565b60008135905061184681611820565b92915050565b600060208284031215611862576118616117ef565b5b600061187084828501611837565b91505092915050565b60008115159050919050565b61188e81611879565b82525050565b60006020820190506118a96000830184611885565b92915050565b600081519050919050565b600082825260208201905092915050565b60005b838110156118e95780820151818401526020810190506118ce565b838111156118f8576000848401525b50505050565b6000601f19601f8301169050919050565b600061191a826118af565b61192481856118ba565b93506119348185602086016118cb565b61193d816118fe565b840191505092915050565b60006020820190508181036000830152611962818461190f565b905092915050565b600073ffffffffffffffffffffffffffffffffffffffff82169050919050565b60006119958261196a565b9050919050565b6119a58161198a565b81146119b057600080fd5b50565b6000813590506119c28161199c565b92915050565b6000819050919050565b6119db816119c8565b81146119e657600080fd5b50565b6000813590506119f8816119d2565b92915050565b60008060408385031215611a1557611a146117ef565b5b6000611a23858286016119b3565b9250506020611a34858286016119e9565b9150509250929050565b6000819050919050565b611a5181611a3e565b8114611a5c57600080fd5b50565b600081359050611a6e81611a48565b92915050565b60008060408385031215611a8b57611a8a6117ef565b5b6000611a9985828601611a5f565b9250506020611aaa858286016119b3565b9150509250929050565b611abd816119c8565b82525050565b6000602082019050611ad86000830184611ab4565b92915050565b600080600060608486031215611af757611af66117ef565b5b6000611b05868287016119b3565b9350506020611b16868287016119b3565b9250506040611b27868287016119e9565b9150509250925092565b600060208284031215611b4757611b466117ef565b5b6000611b5584828501611a5f565b91505092915050565b611b6781611a3e565b82525050565b6000602082019050611b826000830184611b5e565b92915050565b600060ff82169050919050565b611b9e81611b88565b82525050565b6000602082019050611bb96000830184611b95565b92915050565b600060208284031215611bd557611bd46117ef565b5b6000611be3848285016119b3565b91505092915050565b600060208284031215611c0257611c016117ef565b5b6000611c10848285016119e9565b91505092915050565b60008060408385031215611c3057611c2f6117ef565b5b6000611c3e858286016119b3565b9250506020611c4f858286016119b3565b9150509250929050565b7f4e487b7100000000000000000000000000000000000000000000000000000000600052602260045260246000fd5b60006002820490506001821680611ca057607f821691505b60208210811415611cb457611cb3611c59565b5b50919050565b7f45524332303a207472616e7366657220616d6f756e742065786365656473206160008201527f6c6c6f77616e6365000000000000000000000000000000000000000000000000602082015250565b6000611d166028836118ba565b9150611d2182611cba565b604082019050919050565b60006020820190508181036000830152611d4581611d09565b9050919050565b7f416363657373436f6e74726f6c3a2063616e206f6e6c792072656e6f756e636560008201527f20726f6c657320666f722073656c660000000000000000000000000000000000602082015250565b6000611da8602f836118ba565b9150611db382611d4c565b604082019050919050565b60006020820190508181036000830152611dd781611d9b565b9050919050565b7f4e487b7100000000000000000000000000000000000000000000000000000000600052601160045260246000fd5b6000611e18826119c8565b9150611e23836119c8565b9250827fffffffffffffffffffffffffffffffffffffffffffffffffffffffffffffffff03821115611e5857611e57611dde565b5b828201905092915050565b7f45524332303a2064656372656173656420616c6c6f77616e63652062656c6f7760008201527f207a65726f000000000000000000000000000000000000000000000000000000602082015250565b6000611ebf6025836118ba565b9150611eca82611e63565b604082019050919050565b60006020820190508181036000830152611eee81611eb2565b9050919050565b7f45524332303a20617070726f76652066726f6d20746865207a65726f2061646460008201527f7265737300000000000000000000000000000000000000000000000000000000602082015250565b6000611f516024836118ba565b9150611f5c82611ef5565b604082019050919050565b60006020820190508181036000830152611f8081611f44565b9050919050565b7f45524332303a20617070726f766520746f20746865207a65726f20616464726560008201527f7373000000000000000000000000000000000000000000000000000000000000602082015250565b6000611fe36022836118ba565b9150611fee82611f87565b604082019050919050565b6000602082019050818103600083015261201281611fd6565b9050919050565b600081905092915050565b7f416363657373436f6e74726f6c3a206163636f756e7420000000000000000000600082015250565b600061205a601783612019565b915061206582612024565b601782019050919050565b600061207b826118af565b6120858185612019565b93506120958185602086016118cb565b80840191505092915050565b7f206973206d697373696e6720726f6c6520000000000000000000000000000000600082015250565b60006120d7601183612019565b91506120e2826120a1565b601182019050919050565b60006120f88261204d565b91506121048285612070565b915061210f826120ca565b915061211b8284612070565b91508190509392505050565b7f45524332303a207472616e736665722066726f6d20746865207a65726f20616460008201527f6472657373000000000000000000000000000000000000000000000000000000602082015250565b60006121836025836118ba565b915061218e82612127565b604082019050919050565b600060208201905081810360008301526121b281612176565b9050919050565b7f45524332303a207472616e7366657220746f20746865207a65726f206164647260008201527f6573730000000000000000000000000000000000000000000000000000000000602082015250565b60006122156023836118ba565b9150612220826121b9565b604082019050919050565b6000602082019050818103600083015261224481612208565b9050919050565b7f45524332303a207472616e7366657220616d6f756e742065786365656473206260008201527f616c616e63650000000000000000000000000000000000000000000000000000602082015250565b60006122a76026836118ba565b91506122b28261224b565b604082019050919050565b600060208201905081810360008301526122d68161229a565b9050919050565b7f45524332303a206d696e7420746f20746865207a65726f206164647265737300600082015250565b6000612313601f836118ba565b915061231e826122dd565b602082019050919050565b6000602082019050818103600083015261234281612306565b9050919050565b6000612354826119c8565b915061235f836119c8565b9250817fffffffffffffffffffffffffffffffffffffffffffffffffffffffffffffffff048311821515161561239857612397611dde565b5b828202905092915050565b7f4e487b7100000000000000000000000000000000000000000000000000000000600052604160045260246000fd5b7f4e487b7100000000000000000000000000000000000000000000000000000000600052603260045260246000fd5b600061240c826119c8565b915060008214156124205761241f611dde565b5b600182039050919050565b7f537472696e67733a20686578206c656e67746820696e73756666696369656e74600082015250565b60006124616020836118ba565b915061246c8261242b565b602082019050919050565b6000602082019050818103600083015261249081612454565b905091905056fea2646970667358221220e6b1c0aa7033ece20cb99be3fcf04147d7621e809e0f2ede7400307469b5aea164736f6c634300080a0033",
  "immutableReferences": {},
  "source": "pragma solidity ^0.8.0;\nimport \"@openzeppelin/contracts/token/ERC20/ERC20.sol\";\nimport \"@openzeppelin/contracts/access/AccessControl.sol\";\n\ncontract Speedeum is ERC20, AccessControl {\n\n    bytes32 public constant Manager= keccak256(\"Manager\");\n    bytes32 public constant Driver = keccak256(\"Driver\");\n    bytes32 public constant Engineer = keccak256(\"Engineer\");\n    \n    address owner;\n\n    constructor () ERC20(\"Speedeum\",\"SPDM\"){\n        owner = msg.sender;\n        _mint(msg.sender,222);\n        // _grantRole(DEFAULT_ADMIN_ROLE, msg.sender);\n        _setRoleAdmin(Driver, Manager);\n        _setRoleAdmin(Engineer, Manager);\n        // _grantRole(Manager, Man);\n        // owner = Man;\n    }\n\n    function JoinF1(address DriverAddress, address EngineerAddress) external  {\n\n        \n        _grantRole(Driver, DriverAddress);\n        _grantRole(Engineer, EngineerAddress);\n\n    }\n\n    function demote (bytes32 role,address demoteee) public  onlyRole(Manager) {\n        revokeRole(role,demoteee);\n    }\n\n    function checkRole(bytes32 role, address checkee) public view onlyRole(Manager) returns(bool){\n        return hasRole(role,checkee);\n    }\n\n    function mint(uint amount) external {\n        _mint(msg.sender, amount);\n    }\n\n\n}",
  "sourcePath": "/home/matt/Documents/DEX/contracts/nf1tCurrency.sol",
  "compiler": {
    "name": "solc",
    "version": "0.8.10+commit.fc410830.Emscripten.clang"
  },
  "schemaVersion": "3.4.3",
  "updatedAt": "2021-12-02T11:45:28.314Z",
  "networkType": "ethereum",
  "devdoc": {
    "kind": "dev",
    "methods": {
      "allowance(address,address)": {
        "details": "See {IERC20-allowance}."
      },
      "approve(address,uint256)": {
        "details": "See {IERC20-approve}. Requirements: - `spender` cannot be the zero address."
      },
      "balanceOf(address)": {
        "details": "See {IERC20-balanceOf}."
      },
      "decimals()": {
        "details": "Returns the number of decimals used to get its user representation. For example, if `decimals` equals `2`, a balance of `505` tokens should be displayed to a user as `5.05` (`505 / 10 ** 2`). Tokens usually opt for a value of 18, imitating the relationship between Ether and Wei. This is the value {ERC20} uses, unless this function is overridden; NOTE: This information is only used for _display_ purposes: it in no way affects any of the arithmetic of the contract, including {IERC20-balanceOf} and {IERC20-transfer}."
      },
      "decreaseAllowance(address,uint256)": {
        "details": "Atomically decreases the allowance granted to `spender` by the caller. This is an alternative to {approve} that can be used as a mitigation for problems described in {IERC20-approve}. Emits an {Approval} event indicating the updated allowance. Requirements: - `spender` cannot be the zero address. - `spender` must have allowance for the caller of at least `subtractedValue`."
      },
      "getRoleAdmin(bytes32)": {
        "details": "Returns the admin role that controls `role`. See {grantRole} and {revokeRole}. To change a role's admin, use {_setRoleAdmin}."
      },
      "grantRole(bytes32,address)": {
        "details": "Grants `role` to `account`. If `account` had not been already granted `role`, emits a {RoleGranted} event. Requirements: - the caller must have ``role``'s admin role."
      },
      "hasRole(bytes32,address)": {
        "details": "Returns `true` if `account` has been granted `role`."
      },
      "increaseAllowance(address,uint256)": {
        "details": "Atomically increases the allowance granted to `spender` by the caller. This is an alternative to {approve} that can be used as a mitigation for problems described in {IERC20-approve}. Emits an {Approval} event indicating the updated allowance. Requirements: - `spender` cannot be the zero address."
      },
      "name()": {
        "details": "Returns the name of the token."
      },
      "renounceRole(bytes32,address)": {
        "details": "Revokes `role` from the calling account. Roles are often managed via {grantRole} and {revokeRole}: this function's purpose is to provide a mechanism for accounts to lose their privileges if they are compromised (such as when a trusted device is misplaced). If the calling account had been revoked `role`, emits a {RoleRevoked} event. Requirements: - the caller must be `account`."
      },
      "revokeRole(bytes32,address)": {
        "details": "Revokes `role` from `account`. If `account` had been granted `role`, emits a {RoleRevoked} event. Requirements: - the caller must have ``role``'s admin role."
      },
      "supportsInterface(bytes4)": {
        "details": "See {IERC165-supportsInterface}."
      },
      "symbol()": {
        "details": "Returns the symbol of the token, usually a shorter version of the name."
      },
      "totalSupply()": {
        "details": "See {IERC20-totalSupply}."
      },
      "transfer(address,uint256)": {
        "details": "See {IERC20-transfer}. Requirements: - `recipient` cannot be the zero address. - the caller must have a balance of at least `amount`."
      },
      "transferFrom(address,address,uint256)": {
        "details": "See {IERC20-transferFrom}. Emits an {Approval} event indicating the updated allowance. This is not required by the EIP. See the note at the beginning of {ERC20}. Requirements: - `sender` and `recipient` cannot be the zero address. - `sender` must have a balance of at least `amount`. - the caller must have allowance for ``sender``'s tokens of at least `amount`."
      }
    },
    "version": 1
  },
  "userdoc": {
    "kind": "user",
    "methods": {},
    "version": 1
  }
}