{
  "contractName": "Wallet",
  "abi": [
    {
      "anonymous": false,
      "inputs": [
        {
          "indexed": true,
          "internalType": "address",
          "name": "previousOwner",
          "type": "address"
        },
        {
          "indexed": true,
          "internalType": "address",
          "name": "newOwner",
          "type": "address"
        }
      ],
      "name": "OwnershipTransferred",
      "type": "event"
    },
    {
      "inputs": [
        {
          "internalType": "address",
          "name": "",
          "type": "address"
        },
        {
          "internalType": "bytes32",
          "name": "",
          "type": "bytes32"
        }
      ],
      "name": "balances",
      "outputs": [
        {
          "internalType": "uint256",
          "name": "",
          "type": "uint256"
        }
      ],
      "stateMutability": "view",
      "type": "function"
    },
    {
      "inputs": [],
      "name": "owner",
      "outputs": [
        {
          "internalType": "address",
          "name": "",
          "type": "address"
        }
      ],
      "stateMutability": "view",
      "type": "function"
    },
    {
      "inputs": [],
      "name": "renounceOwnership",
      "outputs": [],
      "stateMutability": "nonpayable",
      "type": "function"
    },
    {
      "inputs": [
        {
          "internalType": "uint256",
          "name": "",
          "type": "uint256"
        }
      ],
      "name": "tokenList",
      "outputs": [
        {
          "internalType": "bytes32",
          "name": "",
          "type": "bytes32"
        }
      ],
      "stateMutability": "view",
      "type": "function"
    },
    {
      "inputs": [
        {
          "internalType": "bytes32",
          "name": "",
          "type": "bytes32"
        }
      ],
      "name": "tokenMapping",
      "outputs": [
        {
          "internalType": "bytes32",
          "name": "ticker",
          "type": "bytes32"
        },
        {
          "internalType": "address payable",
          "name": "tokenAddress",
          "type": "address"
        }
      ],
      "stateMutability": "view",
      "type": "function"
    },
    {
      "inputs": [
        {
          "internalType": "address",
          "name": "newOwner",
          "type": "address"
        }
      ],
      "name": "transferOwnership",
      "outputs": [],
      "stateMutability": "nonpayable",
      "type": "function"
    },
    {
      "inputs": [
        {
          "internalType": "bytes32",
          "name": "ticker",
          "type": "bytes32"
        },
        {
          "internalType": "address",
          "name": "tokenAddress",
          "type": "address"
        }
      ],
      "name": "addToken",
      "outputs": [],
      "stateMutability": "nonpayable",
      "type": "function"
    },
    {
      "inputs": [
        {
          "internalType": "uint256",
          "name": "amount",
          "type": "uint256"
        },
        {
          "internalType": "bytes32",
          "name": "ticker",
          "type": "bytes32"
        }
      ],
      "name": "deposit",
      "outputs": [],
      "stateMutability": "nonpayable",
      "type": "function"
    },
    {
      "inputs": [
        {
          "internalType": "uint256",
          "name": "amount",
          "type": "uint256"
        },
        {
          "internalType": "bytes32",
          "name": "ticker",
          "type": "bytes32"
        }
      ],
      "name": "withdraw",
      "outputs": [],
      "stateMutability": "nonpayable",
      "type": "function"
    },
    {
      "inputs": [],
      "name": "depositEth",
      "outputs": [],
      "stateMutability": "payable",
      "type": "function"
    }
  ],
  "bytecode": "0x608060405234801561001057600080fd5b5061002d61002261003260201b60201c565b61003a60201b60201c565b6100fe565b600033905090565b60008060009054906101000a900473ffffffffffffffffffffffffffffffffffffffff169050816000806101000a81548173ffffffffffffffffffffffffffffffffffffffff021916908373ffffffffffffffffffffffffffffffffffffffff1602179055508173ffffffffffffffffffffffffffffffffffffffff168173ffffffffffffffffffffffffffffffffffffffff167f8be0079c531659141344cd1fd0a4f28419497f9722a3daafe3b4186f6b6457e060405160405180910390a35050565b6111d18061010d6000396000f3fe6080604052600436106100915760003560e01c80639776aacf116100595780639776aacf1461015d5780639ead722214610186578063a8d2021a146101c3578063c9630cb0146101ec578063f2fde38b1461021557610091565b80631f14df6914610096578063439370b1146100d3578063667cb4ba146100dd578063715018a61461011b5780638da5cb5b14610132575b600080fd5b3480156100a257600080fd5b506100bd60048036038101906100b89190610bf1565b61023e565b6040516100ca9190610c4a565b60405180910390f35b6100db610263565b005b3480156100e957600080fd5b5061010460048036038101906100ff9190610c65565b610355565b604051610112929190610cc2565b60405180910390f35b34801561012757600080fd5b50610130610399565b005b34801561013e57600080fd5b50610147610421565b6040516101549190610cfa565b60405180910390f35b34801561016957600080fd5b50610184600480360381019061017f9190610d15565b61044a565b005b34801561019257600080fd5b506101ad60048036038101906101a89190610d81565b610585565b6040516101ba9190610dae565b60405180910390f35b3480156101cf57600080fd5b506101ea60048036038101906101e59190610dc9565b6105a9565b005b3480156101f857600080fd5b50610213600480360381019061020e9190610dc9565b610802565b005b34801561022157600080fd5b5061023c60048036038101906102379190610e09565b610994565b005b6003602052816000526040600020602052806000526040600020600091509150505481565b34600360003373ffffffffffffffffffffffffffffffffffffffff1673ffffffffffffffffffffffffffffffffffffffff16815260200190815260200160002060007f45544800000000000000000000000000000000000000000000000000000000008152602001908152602001600020546102df9190610e65565b600360003373ffffffffffffffffffffffffffffffffffffffff1673ffffffffffffffffffffffffffffffffffffffff16815260200190815260200160002060007f4554480000000000000000000000000000000000000000000000000000000000815260200190815260200160002081905550565b60016020528060005260406000206000915090508060000154908060010160009054906101000a900473ffffffffffffffffffffffffffffffffffffffff16905082565b6103a1610a8c565b73ffffffffffffffffffffffffffffffffffffffff166103bf610421565b73ffffffffffffffffffffffffffffffffffffffff1614610415576040517f08c379a000000000000000000000000000000000000000000000000000000000815260040161040c90610f18565b60405180910390fd5b61041f6000610a94565b565b60008060009054906101000a900473ffffffffffffffffffffffffffffffffffffffff16905090565b610452610a8c565b73ffffffffffffffffffffffffffffffffffffffff16610470610421565b73ffffffffffffffffffffffffffffffffffffffff16146104c6576040517f08c379a00000000000000000000000000000000000000000000000000000000081526004016104bd90610f18565b60405180910390fd5b60405180604001604052808381526020018273ffffffffffffffffffffffffffffffffffffffff16815250600160008481526020019081526020016000206000820151816000015560208201518160010160006101000a81548173ffffffffffffffffffffffffffffffffffffffff021916908373ffffffffffffffffffffffffffffffffffffffff16021790555090505060028290806001815401808255809150506001900390600052602060002001600090919091909150555050565b6002818154811061059557600080fd5b906000526020600020016000915090505481565b600073ffffffffffffffffffffffffffffffffffffffff166001600083815260200190815260200160002060010160009054906101000a900473ffffffffffffffffffffffffffffffffffffffff1673ffffffffffffffffffffffffffffffffffffffff16141561064f576040517f08c379a000000000000000000000000000000000000000000000000000000000815260040161064690610f84565b60405180910390fd5b81600360003373ffffffffffffffffffffffffffffffffffffffff1673ffffffffffffffffffffffffffffffffffffffff16815260200190815260200160002060008381526020019081526020016000205410156106e2576040517f08c379a00000000000000000000000000000000000000000000000000000000081526004016106d990610ff0565b60405180910390fd5b81600360003373ffffffffffffffffffffffffffffffffffffffff1673ffffffffffffffffffffffffffffffffffffffff168152602001908152602001600020600083815260200190815260200160002060008282546107429190611010565b925050819055506001600082815260200190815260200160002060010160009054906101000a900473ffffffffffffffffffffffffffffffffffffffff1673ffffffffffffffffffffffffffffffffffffffff1663a9059cbb33846040518363ffffffff1660e01b81526004016107ba929190611044565b6020604051808303816000875af11580156107d9573d6000803e3d6000fd5b505050506040513d601f19601f820116820180604052508101906107fd91906110a5565b505050565b600073ffffffffffffffffffffffffffffffffffffffff166001600083815260200190815260200160002060010160009054906101000a900473ffffffffffffffffffffffffffffffffffffffff1673ffffffffffffffffffffffffffffffffffffffff16141561087257600080fd5b6001600082815260200190815260200160002060010160009054906101000a900473ffffffffffffffffffffffffffffffffffffffff1673ffffffffffffffffffffffffffffffffffffffff166323b872dd3330856040518463ffffffff1660e01b81526004016108e5939291906110d2565b6020604051808303816000875af1158015610904573d6000803e3d6000fd5b505050506040513d601f19601f8201168201806040525081019061092891906110a5565b5081600360003373ffffffffffffffffffffffffffffffffffffffff1673ffffffffffffffffffffffffffffffffffffffff168152602001908152602001600020600083815260200190815260200160002060008282546109899190610e65565b925050819055505050565b61099c610a8c565b73ffffffffffffffffffffffffffffffffffffffff166109ba610421565b73ffffffffffffffffffffffffffffffffffffffff1614610a10576040517f08c379a0000000000000000000000000000000000000000000000000000000008152600401610a0790610f18565b60405180910390fd5b600073ffffffffffffffffffffffffffffffffffffffff168173ffffffffffffffffffffffffffffffffffffffff161415610a80576040517f08c379a0000000000000000000000000000000000000000000000000000000008152600401610a779061117b565b60405180910390fd5b610a8981610a94565b50565b600033905090565b60008060009054906101000a900473ffffffffffffffffffffffffffffffffffffffff169050816000806101000a81548173ffffffffffffffffffffffffffffffffffffffff021916908373ffffffffffffffffffffffffffffffffffffffff1602179055508173ffffffffffffffffffffffffffffffffffffffff168173ffffffffffffffffffffffffffffffffffffffff167f8be0079c531659141344cd1fd0a4f28419497f9722a3daafe3b4186f6b6457e060405160405180910390a35050565b600080fd5b600073ffffffffffffffffffffffffffffffffffffffff82169050919050565b6000610b8882610b5d565b9050919050565b610b9881610b7d565b8114610ba357600080fd5b50565b600081359050610bb581610b8f565b92915050565b6000819050919050565b610bce81610bbb565b8114610bd957600080fd5b50565b600081359050610beb81610bc5565b92915050565b60008060408385031215610c0857610c07610b58565b5b6000610c1685828601610ba6565b9250506020610c2785828601610bdc565b9150509250929050565b6000819050919050565b610c4481610c31565b82525050565b6000602082019050610c5f6000830184610c3b565b92915050565b600060208284031215610c7b57610c7a610b58565b5b6000610c8984828501610bdc565b91505092915050565b610c9b81610bbb565b82525050565b6000610cac82610b5d565b9050919050565b610cbc81610ca1565b82525050565b6000604082019050610cd76000830185610c92565b610ce46020830184610cb3565b9392505050565b610cf481610b7d565b82525050565b6000602082019050610d0f6000830184610ceb565b92915050565b60008060408385031215610d2c57610d2b610b58565b5b6000610d3a85828601610bdc565b9250506020610d4b85828601610ba6565b9150509250929050565b610d5e81610c31565b8114610d6957600080fd5b50565b600081359050610d7b81610d55565b92915050565b600060208284031215610d9757610d96610b58565b5b6000610da584828501610d6c565b91505092915050565b6000602082019050610dc36000830184610c92565b92915050565b60008060408385031215610de057610ddf610b58565b5b6000610dee85828601610d6c565b9250506020610dff85828601610bdc565b9150509250929050565b600060208284031215610e1f57610e1e610b58565b5b6000610e2d84828501610ba6565b91505092915050565b7f4e487b7100000000000000000000000000000000000000000000000000000000600052601160045260246000fd5b6000610e7082610c31565b9150610e7b83610c31565b9250827fffffffffffffffffffffffffffffffffffffffffffffffffffffffffffffffff03821115610eb057610eaf610e36565b5b828201905092915050565b600082825260208201905092915050565b7f4f776e61626c653a2063616c6c6572206973206e6f7420746865206f776e6572600082015250565b6000610f02602083610ebb565b9150610f0d82610ecc565b602082019050919050565b60006020820190508181036000830152610f3181610ef5565b9050919050565b7f546f6b656e20646f6573206e6f74206578697374000000000000000000000000600082015250565b6000610f6e601483610ebb565b9150610f7982610f38565b602082019050919050565b60006020820190508181036000830152610f9d81610f61565b9050919050565b7f6e6f7420656e6f7567682063757272656e637900000000000000000000000000600082015250565b6000610fda601383610ebb565b9150610fe582610fa4565b602082019050919050565b6000602082019050818103600083015261100981610fcd565b9050919050565b600061101b82610c31565b915061102683610c31565b92508282101561103957611038610e36565b5b828203905092915050565b60006040820190506110596000830185610ceb565b6110666020830184610c3b565b9392505050565b60008115159050919050565b6110828161106d565b811461108d57600080fd5b50565b60008151905061109f81611079565b92915050565b6000602082840312156110bb576110ba610b58565b5b60006110c984828501611090565b91505092915050565b60006060820190506110e76000830186610ceb565b6110f46020830185610ceb565b6111016040830184610c3b565b949350505050565b7f4f776e61626c653a206e6577206f776e657220697320746865207a65726f206160008201527f6464726573730000000000000000000000000000000000000000000000000000602082015250565b6000611165602683610ebb565b915061117082611109565b604082019050919050565b6000602082019050818103600083015261119481611158565b905091905056fea26469706673582212205ceeae981e808046f11409766b57d99d6ed29d49a0d33b7a3cc402b5bffb48a664736f6c634300080a0033",
  "immutableReferences": {},
  "source": "pragma solidity ^0.8.0;\n\nimport \"@openzeppelin/contracts/access/Ownable.sol\";\nimport \"@openzeppelin/contracts/token/ERC20/IERC20.sol\";\ncontract Wallet is Ownable{\n\n    struct token {\n        bytes32 ticker;\n        address payable  tokenAddress;\n    }\n    mapping (bytes32 => token) public tokenMapping;\n    bytes32[] public tokenList;\n    mapping(address=>mapping(bytes32=>uint256)) public balances;\n\n    function addToken(bytes32 ticker, address tokenAddress) external onlyOwner {\n        tokenMapping[ticker] = token(ticker,payable(tokenAddress));\n        tokenList.push(ticker);\n    }\n\n    function deposit (uint amount, bytes32 ticker) external {\n        require(tokenMapping[ticker].tokenAddress != address(0));\n        IERC20(tokenMapping[ticker].tokenAddress).transferFrom(msg.sender, address(this), amount);\n        balances[msg.sender][ticker] += amount;\n    }\n\n    function withdraw(uint amount, bytes32 ticker) external {\n        require(tokenMapping[ticker].tokenAddress != address(0), \"Token does not exist\");\n        require(balances[msg.sender][ticker]>=amount,\"not enough currency\");\n        balances[msg.sender][ticker] -= amount;\n        IERC20(tokenMapping[ticker].tokenAddress).transfer(msg.sender,amount);\n    } \n     function depositEth() payable external {\n        balances[msg.sender][bytes32(\"ETH\")] = balances[msg.sender][bytes32(\"ETH\")] + (msg.value);\n    }\n    \n}",
  "sourcePath": "/home/matt/Documents/DEX/contracts/Wallet.sol",
  "compiler": {
    "name": "solc",
    "version": "0.8.10+commit.fc410830.Emscripten.clang"
  },
  "schemaVersion": "3.4.3",
  "updatedAt": "2021-12-02T11:45:28.322Z",
  "networkType": "ethereum",
  "devdoc": {
    "kind": "dev",
    "methods": {
      "owner()": {
        "details": "Returns the address of the current owner."
      },
      "renounceOwnership()": {
        "details": "Leaves the contract without owner. It will not be possible to call `onlyOwner` functions anymore. Can only be called by the current owner. NOTE: Renouncing ownership will leave the contract without an owner, thereby removing any functionality that is only available to the owner."
      },
      "transferOwnership(address)": {
        "details": "Transfers ownership of the contract to a new account (`newOwner`). Can only be called by the current owner."
      }
    },
    "version": 1
  },
  "userdoc": {
    "kind": "user",
    "methods": {},
    "version": 1
  }
}